{
  "contractName": "Auction",
  "abi": [
    {
      "inputs": [
        {
          "internalType": "uint256",
          "name": "biddingTime",
          "type": "uint256"
        },
        {
          "internalType": "address payable",
          "name": "_beneficiary",
          "type": "address"
        }
      ],
      "stateMutability": "nonpayable",
      "type": "constructor"
    },
    {
      "inputs": [],
      "name": "AuctionAlreadyEnded",
      "type": "error"
    },
    {
      "inputs": [],
      "name": "AuctionEndAlreadyCalled",
      "type": "error"
    },
    {
      "inputs": [],
      "name": "AuctionNotYetEnded",
      "type": "error"
    },
    {
      "inputs": [],
      "name": "BidNoLongerActive",
      "type": "error"
    },
    {
      "inputs": [],
      "name": "BidNotHighEnough",
      "type": "error"
    },
    {
      "anonymous": false,
      "inputs": [
        {
          "components": [
            {
              "internalType": "uint256",
              "name": "value",
              "type": "uint256"
            },
            {
              "internalType": "address",
              "name": "user",
              "type": "address"
            },
            {
              "internalType": "bool",
              "name": "active",
              "type": "bool"
            },
            {
              "internalType": "uint256",
              "name": "bidId",
              "type": "uint256"
            }
          ],
          "indexed": false,
          "internalType": "struct Auction.bid",
          "name": "",
          "type": "tuple"
        }
      ],
      "name": "AuctionEnded",
      "type": "event"
    },
    {
      "anonymous": false,
      "inputs": [
        {
          "components": [
            {
              "internalType": "uint256",
              "name": "value",
              "type": "uint256"
            },
            {
              "internalType": "address",
              "name": "user",
              "type": "address"
            },
            {
              "internalType": "bool",
              "name": "active",
              "type": "bool"
            },
            {
              "internalType": "uint256",
              "name": "bidId",
              "type": "uint256"
            }
          ],
          "indexed": false,
          "internalType": "struct Auction.bid",
          "name": "",
          "type": "tuple"
        }
      ],
      "name": "HighestBidIncreased",
      "type": "event"
    },
    {
      "inputs": [],
      "name": "auctionLength",
      "outputs": [
        {
          "internalType": "uint256",
          "name": "",
          "type": "uint256"
        }
      ],
      "stateMutability": "view",
      "type": "function",
      "constant": true
    },
    {
      "inputs": [],
      "name": "auctionLive",
      "outputs": [
        {
          "internalType": "bool",
          "name": "",
          "type": "bool"
        }
      ],
      "stateMutability": "view",
      "type": "function",
      "constant": true
    },
    {
      "inputs": [],
      "name": "bidId",
      "outputs": [
        {
          "internalType": "uint256",
          "name": "",
          "type": "uint256"
        }
      ],
      "stateMutability": "view",
      "type": "function",
      "constant": true
    },
    {
      "inputs": [
        {
          "internalType": "uint256",
          "name": "",
          "type": "uint256"
        }
      ],
      "name": "bids",
      "outputs": [
        {
          "internalType": "uint256",
          "name": "value",
          "type": "uint256"
        },
        {
          "internalType": "address",
          "name": "user",
          "type": "address"
        },
        {
          "internalType": "bool",
          "name": "active",
          "type": "bool"
        },
        {
          "internalType": "uint256",
          "name": "bidId",
          "type": "uint256"
        }
      ],
      "stateMutability": "view",
      "type": "function",
      "constant": true
    },
    {
      "inputs": [],
      "name": "currentHighestBid",
      "outputs": [
        {
          "internalType": "uint256",
          "name": "value",
          "type": "uint256"
        },
        {
          "internalType": "address",
          "name": "user",
          "type": "address"
        },
        {
          "internalType": "bool",
          "name": "active",
          "type": "bool"
        },
        {
          "internalType": "uint256",
          "name": "bidId",
          "type": "uint256"
        }
      ],
      "stateMutability": "view",
      "type": "function",
      "constant": true
    },
    {
      "inputs": [],
      "name": "endTime",
      "outputs": [
        {
          "internalType": "uint256",
          "name": "",
          "type": "uint256"
        }
      ],
      "stateMutability": "view",
      "type": "function",
      "constant": true
    },
    {
      "inputs": [],
      "name": "makeBid",
      "outputs": [],
      "stateMutability": "payable",
      "type": "function",
      "payable": true
    },
    {
      "inputs": [
        {
          "internalType": "uint256",
          "name": "_bidId",
          "type": "uint256"
        }
      ],
      "name": "withdraw",
      "outputs": [
        {
          "internalType": "bool",
          "name": "",
          "type": "bool"
        }
      ],
      "stateMutability": "nonpayable",
      "type": "function"
    },
    {
      "inputs": [],
      "name": "auctionEnd",
      "outputs": [],
      "stateMutability": "nonpayable",
      "type": "function"
    }
  ],
  "bytecode": "0x608060405260006003553480156200001657600080fd5b5060405162000f4e38038062000f4e83398181016040528101906200003c9190620002e4565b80600760006101000a81548173ffffffffffffffffffffffffffffffffffffffff021916908373ffffffffffffffffffffffffffffffffffffffff1602179055508160018190555081426200009291906200035a565b6000819055506001600260006101000a81548160ff02191690831515021790555060405180608001604052806706f05b59d3b2000081526020018273ffffffffffffffffffffffffffffffffffffffff16815260200160011515815260200160035481525060046000820151816000015560208201518160010160006101000a81548173ffffffffffffffffffffffffffffffffffffffff021916908373ffffffffffffffffffffffffffffffffffffffff16021790555060408201518160010160146101000a81548160ff02191690831515021790555060608201518160020155905050600460086000808152602001908152602001600020600082015481600001556001820160009054906101000a900473ffffffffffffffffffffffffffffffffffffffff168160010160006101000a81548173ffffffffffffffffffffffffffffffffffffffff021916908373ffffffffffffffffffffffffffffffffffffffff1602179055506001820160149054906101000a900460ff168160010160146101000a81548160ff021916908315150217905550600282015481600201559050505050620003b7565b600080fd5b6000819050919050565b620002598162000244565b81146200026557600080fd5b50565b60008151905062000279816200024e565b92915050565b600073ffffffffffffffffffffffffffffffffffffffff82169050919050565b6000620002ac826200027f565b9050919050565b620002be816200029f565b8114620002ca57600080fd5b50565b600081519050620002de81620002b3565b92915050565b60008060408385031215620002fe57620002fd6200023f565b5b60006200030e8582860162000268565b92505060206200032185828601620002cd565b9150509250929050565b7f4e487b7100000000000000000000000000000000000000000000000000000000600052601160045260246000fd5b6000620003678262000244565b9150620003748362000244565b9250827fffffffffffffffffffffffffffffffffffffffffffffffffffffffffffffffff03821115620003ac57620003ab6200032b565b5b828201905092915050565b610b8780620003c76000396000f3fe6080604052600436106100865760003560e01c80634423c5f1116100595780634423c5f1146101355780638ac4731914610175578063c83ab5df146101a0578063cc7d1a0f146101cb578063f30e3658146101f957610086565b80632a24f46c1461008b5780632e1a7d4d146100a25780633197cbb6146100df578063325c25a21461010a575b600080fd5b34801561009757600080fd5b506100a0610203565b005b3480156100ae57600080fd5b506100c960048036038101906100c49190610839565b610348565b6040516100d69190610881565b60405180910390f35b3480156100eb57600080fd5b506100f4610578565b60405161010191906108ab565b60405180910390f35b34801561011657600080fd5b5061011f61057e565b60405161012c91906108ab565b60405180910390f35b34801561014157600080fd5b5061015c60048036038101906101579190610839565b610584565b60405161016c9493929190610907565b60405180910390f35b34801561018157600080fd5b5061018a6105e1565b60405161019791906108ab565b60405180910390f35b3480156101ac57600080fd5b506101b56105e7565b6040516101c29190610881565b60405180910390f35b3480156101d757600080fd5b506101e06105fa565b6040516101f09493929190610907565b60405180910390f35b610201610645565b005b60005442101561023f576040517f44cee29000000000000000000000000000000000000000000000000000000000815260040160405180910390fd5b600260009054906101000a900460ff16610285576040517fd02e774d00000000000000000000000000000000000000000000000000000000815260040160405180910390fd5b6000600260006101000a81548160ff0219169083151502179055507ff10213197143886ba9e2752716c8b3d541693ffdb2484e55e56b0eec1ff3d96d60046040516102d09190610a94565b60405180910390a1600760009054906101000a900473ffffffffffffffffffffffffffffffffffffffff1673ffffffffffffffffffffffffffffffffffffffff166108fc6004600001549081150290604051600060405180830381858888f19350505050158015610345573d6000803e3d6000fd5b50565b6000600115156008600084815260200190815260200160002060010160149054906101000a900460ff1615151480156103e257503373ffffffffffffffffffffffffffffffffffffffff166008600084815260200190815260200160002060010160009054906101000a900473ffffffffffffffffffffffffffffffffffffffff1673ffffffffffffffffffffffffffffffffffffffff16145b1561056e57600060086000848152602001908152602001600020600001549050600081111561056c573373ffffffffffffffffffffffffffffffffffffffff166108fc829081150290604051600060405180830381858888f1935050505061044e576000915050610573565b60006008600085815260200190815260200160002060010160146101000a81548160ff021916908315150217905550826003541415610562576003600081548092919061049a90610ade565b91905055506008600060035481526020019081526020016000206004600082015481600001556001820160009054906101000a900473ffffffffffffffffffffffffffffffffffffffff168160010160006101000a81548173ffffffffffffffffffffffffffffffffffffffff021916908373ffffffffffffffffffffffffffffffffffffffff1602179055506001820160149054906101000a900460ff168160010160146101000a81548160ff021916908315150217905550600282015481600201559050505b6001915050610573565b505b600090505b919050565b60005481565b60015481565b60086020528060005260406000206000915090508060000154908060010160009054906101000a900473ffffffffffffffffffffffffffffffffffffffff16908060010160149054906101000a900460ff16908060020154905084565b60035481565b600260009054906101000a900460ff1681565b60048060000154908060010160009054906101000a900473ffffffffffffffffffffffffffffffffffffffff16908060010160149054906101000a900460ff16908060020154905084565b600460000154341015610684576040517f3bdb1be700000000000000000000000000000000000000000000000000000000815260040160405180910390fd5b6000544211156106c0576040517fd02e774d00000000000000000000000000000000000000000000000000000000815260040160405180910390fd5b34600460000181905550600360008154809291906106dd90610b08565b919050555060405180608001604052803481526020013373ffffffffffffffffffffffffffffffffffffffff1681526020016001151581526020016003548152506008600060035481526020019081526020016000206000820151816000015560208201518160010160006101000a81548173ffffffffffffffffffffffffffffffffffffffff021916908373ffffffffffffffffffffffffffffffffffffffff16021790555060408201518160010160146101000a81548160ff021916908315150217905550606082015181600201559050507f99d21bac7eb17e52aacaeecec797174948d8354d9500f82d8a0d941c0ee817166008600060035481526020019081526020016000206040516107f49190610a94565b60405180910390a1565b600080fd5b6000819050919050565b61081681610803565b811461082157600080fd5b50565b6000813590506108338161080d565b92915050565b60006020828403121561084f5761084e6107fe565b5b600061085d84828501610824565b91505092915050565b60008115159050919050565b61087b81610866565b82525050565b60006020820190506108966000830184610872565b92915050565b6108a581610803565b82525050565b60006020820190506108c0600083018461089c565b92915050565b600073ffffffffffffffffffffffffffffffffffffffff82169050919050565b60006108f1826108c6565b9050919050565b610901816108e6565b82525050565b600060808201905061091c600083018761089c565b61092960208301866108f8565b6109366040830185610872565b610943606083018461089c565b95945050505050565b60008160001c9050919050565b6000819050919050565b60006109766109718361094c565b610959565b9050919050565b61098681610803565b82525050565b600073ffffffffffffffffffffffffffffffffffffffff82169050919050565b60006109bf6109ba8361094c565b61098c565b9050919050565b6109cf816108e6565b82525050565b60008160a01c9050919050565b600060ff82169050919050565b6000610a026109fd836109d5565b6109e2565b9050919050565b610a1281610866565b82525050565b608082016000808301549050610a2d81610963565b610a3a600086018261097d565b5060018301549050610a4b816109ac565b610a5860208601826109c6565b50610a62816109ef565b610a6f6040860182610a09565b5060028301549050610a8081610963565b610a8d606086018261097d565b5050505050565b6000608082019050610aa96000830184610a18565b92915050565b7f4e487b7100000000000000000000000000000000000000000000000000000000600052601160045260246000fd5b6000610ae982610803565b91506000821415610afd57610afc610aaf565b5b600182039050919050565b6000610b1382610803565b91507fffffffffffffffffffffffffffffffffffffffffffffffffffffffffffffffff821415610b4657610b45610aaf565b5b60018201905091905056fea26469706673582212204d58b349014da8f2587d1d8a461f16365be1e2491d4033055221f30d0852f29964736f6c634300080b0033",
  "immutableReferences": {},
  "source": "pragma solidity ^0.8.11;\n\ncontract Auction{\n\n    uint public endTime;\n    uint public auctionLength;\n    bool public auctionLive;\n    uint public bidId = 0;\n    bid public currentHighestBid;\n    address payable beneficiary;\n\n    mapping(uint => bid) public bids;\n\n    struct bid {\n        uint value;\n        address user; \n        bool active;\n        uint bidId;\n    }\n\n    event HighestBidIncreased(bid);\n    event AuctionEnded(bid);\n\n    error AuctionAlreadyEnded();\n\n    error BidNotHighEnough();\n\n    error AuctionNotYetEnded();\n\n    error AuctionEndAlreadyCalled();\n\n    error BidNoLongerActive();\n\n    constructor(uint biddingTime, address payable _beneficiary){\n        beneficiary = _beneficiary;\n        auctionLength = biddingTime;\n        endTime = block.timestamp + biddingTime;\n        auctionLive = true;\n        currentHighestBid = bid(0.5 ether, _beneficiary, true, bidId);\n        bids[0] = currentHighestBid;\n    }\n\n    function makeBid() external payable{\n        if (msg.value < currentHighestBid.value) revert BidNotHighEnough();\n\n        if (block.timestamp > endTime) revert AuctionAlreadyEnded();\n\n        currentHighestBid.value = msg.value;\n        bidId++;\n        bids[bidId] = bid(msg.value, msg.sender, true, bidId);\n        emit HighestBidIncreased(bids[bidId]);\n    }\n\n    function withdraw(uint _bidId) external returns(bool){\n        if (bids[_bidId].active == true && bids[_bidId].user == msg.sender){\n            uint amount = bids[_bidId].value;\n            if (amount > 0){\n                \n                if (!payable(msg.sender).send(amount)){\n                    return false;\n                }\n                bids[_bidId].active = false;\n                if (bidId == _bidId){\n                    bidId--;\n                    currentHighestBid = bids[bidId];\n                }\n                return true;\n            }\n        }\n        return false;\n    }\n\n    function auctionEnd() external{\n\n        if (block.timestamp < endTime) revert AuctionNotYetEnded();\n\n        if (!auctionLive) revert AuctionAlreadyEnded();\n\n        auctionLive = false;\n        emit AuctionEnded(currentHighestBid);\n\n        beneficiary.transfer(currentHighestBid.value);\n    }\n\n}   ",
  "sourcePath": "/Users/erikmacinnis/Desktop/BlockChainWork/Auction/src/contracts/Auction.sol",
  "compiler": {
    "name": "solc",
    "version": "0.8.11+commit.d7f03943.Emscripten.clang"
  },
  "schemaVersion": "3.4.4",
  "updatedAt": "2022-01-30T16:47:44.859Z",
  "networkType": "ethereum",
  "devdoc": {
    "kind": "dev",
    "methods": {},
    "version": 1
  },
  "userdoc": {
    "kind": "user",
    "methods": {},
    "version": 1
  }
}